:04000000FEEF3FF0E0
:1006000000563A25642E25642E25642020202020C3
:1006100020200046572056455253494F4E20202057
:10062000202020004F544120555044415445202063
:1006300020202020005374617274696E672E2E2E64
:100640002020202020004641494C4544212052656D
:100650007472792E2E2E005550444154455F464108
:10066000494C0A00554E4B4E4F574E5F434D440A7E
:100670000053544152545F55504441544500563A3A
:1006800025642E25642E25640A004745545F56458F
:100690005253494F4E00414C4956450A004E414382
:1006A0004B0A0000116A000E106E0C50D96EDA6A07
:1006B000DFCFF6FF060EF76E0800F550250AD8A426
:1006C00064EF03F066EF03F027EF04F00C50D96EEF
:1006D000DA6ADF2A516A000E506E50C056F0526836
:1006E00053680C50D96EDA6ADF50126E12C0F6FFF2
:1006F000060EF76E0800F550640AD8B482EF03F0D6
:1007000084EF03F092EF03F012C0F6FF060EF76ECF
:100710000800F550690AD8A490EF03F092EF03F0B7
:100720001EEF04F00D50D96EDA6A020EDF26DF5C90
:10073000D96EDA6ADECF13F0DECF14F00C50D96E2A
:10074000DA6A1228DF6E200E176E14BEAAEF03F0CD
:10075000ADEF03F0010EAEEF03F0000E0F6E1706C3
:100760001750600FD96EDA6A13C001F014C002F09E
:10077000046A0A0E036EE7EC06F001C007F002C03F
:1007800008F026EC09F00750300FDF6E13C001F0BF
:1007900014C002F0046A0A0E036E87EC06F001C072
:1007A00013F002C014F0104A112A13501410D8B4D8
:1007B000DCEF03F0DEEF03F0E6EF03F01750D8A410
:1007C000E4EF03F0E6EF03F0AFEF03F01750D8B417
:1007D000ECEF03F0EEEF03F00FEF04F00F50D8B49E
:1007E000F4EF03F0F6EF03F00FEF04F017061750E5
:1007F000600FD96EDA6A2D0EDF6E104A112A0FEFE4
:1008000004F01750600FD96EDA6ADF500E6E0E508A
:10081000016E026A0BC003F03EEC07F0172A200EAF
:100820001718D8A416EF04F018EF04F001EF04F045
:1008300010C00BF011C00CF03DEF04F00C50D96E5D
:10084000DA6ADF2A0C6A000E0B6E3DEF04F00C50E2
:10085000D96EDA6ADFCFF6FF060EF76E0800F550A4
:10086000016E026A0BC003F03EEC07F00C50D96E2B
:10087000DA6ADF2A0C6A010E0B6E120009C001F061
:10088000036A7C0E026ED2EC08F03A6E09C001F0E9
:10089000036A3E0E026ED2EC08F0376E3A50D8B4BE
:1008A00054EF04F056EF04F067EF04F03750D8B47B
:1008B0005CEF04F05EEF04F067EF04F037503A5C51
:1008C000D8A065EF04F067EF04F071EF04F09D0E1F
:1008D000026E0250D8A4060E036E35EC08F01DEF30
:1008E00005F009503A5C0A6E0A04386E3850D8B4E4
:1008F0007CEF04F07EEF04F086EF04F01F0E386406
:1009000084EF04F086EF04F090EF04F09D0E026E89
:100910000250D8A4060E036E35EC08F01DEF05F06A
:100920000B0E016E0928026E38C003F0046A93ECC6
:1009300007F038500B0FD96EDA6ADF6A3A50375C2D
:100940000A6E0A04396E3950D8B4A9EF04F0ABEF3F
:1009500004F0B3EF04F0070E3964B1EF04F0B3EF25
:1009600004F0BDEF04F09D0E026E0250D8A4060EF6
:10097000036E35EC08F01DEF05F02B0E016E3A28E2
:10098000026E39C003F0046A93EC07F039502B0F64
:10099000D96EDA6ADF6A2B0E016E1EEC05F001508B
:1009A000356E0B0E016E87EC09F0366E3550361839
:1009B000D8B4DDEF04F0DFEF04F0E9EF04F09D0EB2
:1009C000026E0250D8A4060E036E35EC08F01DEF3F
:1009D00005F00B0E016E710E026E02EC08F0015074
:1009E0000210D8A4F6EF04F0F8EF04F015EF05F0CC
:1009F0009E0E026E0250D8A4060E036E35EC08F06F
:100A0000030E346EE80E336E3306D8A03406332856
:100A100006E13428D8A40FEF05F011EF05F004EF3C
:100A200005F070EC09F01DEF05F09D0E026E02500E
:100A3000D8A4060E036E35EC08F01200086A000E0A
:100A4000076E066A25EF05F0012A0150D96EDA6AB1
:100A5000200EDE18D8B42FEF05F031EF05F024EFAB
:100A600005F00150D96EDA6ADF50036EF70E0326E7
:100A7000040E03643EEF05F040EF05F024EF05F0AF
:100A80000150D96EDA6A2D0EDE18D8A44AEF05F0AF
:100A90004CEF05F051EF05F0010E066E012A79EFDB
:100AA00005F00150D96EDA6A2B0EDE18D8A45BEF80
:100AB00005F05DEF05F079EF05F04EEF05F00A0E59
:100AC0000702F3CF03F0F4CF04F00802F35004263A
:100AD0000150D96EDA6ADF50056E0550035E000ED4
:100AE000045A300E0324076E000E0420086E4EEFE9
:100AF00005F00150D96EDA6ADF50036ED00E03267E
:100B0000090E036486EF05F088EF05F05FEF05F04E
:100B10000650D8A48EEF05F090EF05F09EEF05F09B
:100B200007C003F008C004F0031E041E034A042A91
:100B300003C001F004C002F0A2EF05F007C001F00D
:100B400008C002F0120016EC0AF00009D8A4ABEFBE
:100B500005F0ADEF05F0AFEF05F015EF06F0B2ECE4
:100B600009F04D6E0D0E4D18D8A4B9EF05F0BBEF8E
:100B700005F0BDEF05F015EF06F00A0E4D18D8A4EC
:100B8000C4EF05F0C6EF05F003EF06F05750800FF5
:100B9000D96EDA6ADF6A576A00018051D8A4D3EFB0
:100BA00005F0D5EF05F0D7EF05F015EF06F03C0E98
:100BB0008019D8A4DEEF05F0E0EF05F0E6EF05F0D0
:100BC000800E096E3EEC04F015EF06F0800E016E0B
:100BD0008A0E026E02EC08F001500210D8A4F3EF66
:100BE00005F0F5EF05F0F9EF05F040EC09F015EF31
:100BF00006F0640E026E0250D8A4060E036E35ECA9
:100C000008F015EF06F05750800FD96EDA6A4DC024
:100C1000DFFF572A1E0E576410EF06F012EF06F0A2
:100C200015EF06F0576A0001806B1200800E1E5C03
:100C3000D8A01DEF06F01FEF06F024EF06F0556A6E
:100C40004B0E546E86EF06F0200E2B6E1CC02EF05D
:100C50001E5009E1020E1D5CD8A031EF06F033EF03
:100C600006F03EEF06F0FF0E1D24376EFF0E1E202D
:100C7000386E316A000E306E44EF06F0386A010EAD
:100C8000376E316A010E306E2E0E186E1FC019F0CD
:100C90002B0E1A6E64EC08F018C02CF019C02DF061
:100CA0001D501E10D8B457EF06F059EF06F086EF2E
:100CB00006F02DBE5EEF06F060EF06F086EF06F060
:100CC000FF0E1D24266EFF0E1E20276E26502C5C64
:100CD0002D50800A286E2750800A2858D8A073EF1C
:100CE00006F075EF06F07DEF06F0FF0E1D24296E6D
:100CF000FF0E1E202A6E81EF06F02CC029F02DC0B9
:100D00002AF01C502924D96EDA6ADF6A1200066ABA
:100D100004BE8FEF06F08DEF06F095EF06F0036C42
:100D2000041ED8B0042A010E066E02BE9CEF06F027
:100D30009AEF06F0A2EF06F0016C021ED8B0022A6C
:100D4000010E061A086A000E076E03500410D8B48C
:100D5000ACEF06F0AEEF06F0D6EF06F0010E056E32
:100D6000B6EF06F0D89003360436052A04AEBBEF82
:100D700006F0BDEF06F0B2EF06F0D8900736083661
:100D80000350015C04500258D8A0C9EF06F0CBEF25
:100D900006F0D0EF06F00350015E0450025A0780BF
:100DA000D89004320332052EBDEF06F00650D8B4B9
:100DB000DCEF06F0DEEF06F0E2EF06F0076C081E4F
:100DC000D8B0082A07C001F008C002F01200066A75
:100DD00002BEEFEF06F0EDEF06F0F5EF06F0016C66
:100DE000021ED8B0022A010E066E04BEFCEF06F009
:100DF000FAEF06F000EF07F0036C041ED8B0042AE7
:100E000003500410D8B407EF07F009EF07F02DEFF7
:100E100007F0010E056E11EF07F0D8900336043687
:100E2000052A04AE16EF07F018EF07F00DEF07F0F4
:100E30000350015C04500258D8A021EF07F023EFC3
:100E400007F027EF07F00350015E0450025AD890D4
:100E500004320332052E18EF07F00650D8B433EFF2
:100E600007F035EF07F039EF07F0016C021ED8B03C
:100E7000022A01C001F002C002F012000350D8B4EF
:100E800044EF07F046EF07F04EEF07F00350D8A409
:100E90004CEF07F04EEF07F053EF07F001501AEC5C
:100EA0000AF092EF07F00350D96EDA6A090ED926DC
:100EB000DE50DE10D8B45FEF07F061EF07F07AEF95
:100EC00007F00350D96EDA6A090ED9260350E16E95
:100ED000E26A020EE126DE50E65CE650800A086E09
:100EE000DE50800A0858D8B078EF07F07AEF07F0A4
:100EF00092EF07F00350D96EDA6A020ED926DF505E
:100F0000046E0350D96EDA6ADF500424D96EDA6AAF
:100F100001C0DFFF0350D96EDA6A020ED926DE2A3D
:100F2000000EDD22120001C005F0AEEF07F003064F
:100F3000D8A00406022A0204D96EDA6A052A05043A
:100F4000E16EE26ADFCFE7FFE750D8A4AAEF07F02F
:100F5000ACEF07F0AEEF07F0BEEF07F00350041060
:100F6000D8A4B5EF07F0B7EF07F097EF07F0BEEFA3
:100F700007F00550D96EDA6ADF6A052A0306D8A0A1
:100F80000406032806E10428D8A4C9EF07F0CBEF34
:100F900007F0B9EF07F01200000E016E0550EFECFC
:100FA00008F0E9EF07F0010E016E03C0F6FF04C080
:100FB000F7FFF86A050EF76403D00800F55005D076
:100FC000F6CFE1FFF7CFE2FFE750EFEC08F0034A7E
:100FD000042A03C0F6FF04C0F7FFF86A050EF764A1
:100FE00003D00800F55005D0F6CFE1FFF7CFE2FFC0
:100FF000E7500009D8A4FFEF07F001EF08F0D3EFA6
:1010000007F0120006EF08F0012A022A0150D96EFB
:10101000DA6ADF50036E02C0F6FF060EF76E0800B4
:10102000F5500318D8A417EF08F019EF08F024EFD3
:1010300008F00150D96EDA6ADF50D8A422EF08F028
:1010400024EF08F004EF08F00150D96EDA6ADF509F
:10105000036E02C0F6FF060EF76E0800F550035C43
:10106000016E026AD8A0020612004BEF08F002C01F
:10107000F6FF03C0F7FFF86A050EF76403D0080017
:10108000F55005D0F6CFE1FFF7CFE2FFE750E5ECF2
:1010900009F0024A032A02C0F6FF03C0F7FFF86A0C
:1010A000050EF76403D00800F55005D0F6CFE1FF38
:1010B000F7CFE2FFE7500009D8A461EF08F063EF33
:1010C00008F037EF08F0120019C01BF04F6A000E4D
:1010D0004E6E77EF08F018C00BF01B0E0C6E1AC0A6
:1010E0000DF052EC03F00B504E260C504F221BC05B
:1010F000F6FF060EF76E0800F5500009D8A483EF3E
:1011000008F085EF08F06BEF08F04EC018F04FC004
:1011100019F01200130E036E0350D8A4060E046ECD
:10112000800E056ECCEC07F0390E1C6E1E6A140E94
:101130001D6E010E1F6E216A010E206E236A000EC5
:10114000226E256A000E246E16EC06F0390E036E30
:10115000046AC00E056ECCEC07F01200040E03EC1E
:101160000AF0AA0AD8A4B7EF08F0B9EF08F0D1EF57
:1011700008F0570E026E0250D8A4060E036E35EC2E
:1011800008F0460E066E9DEC09F0330E086EBB0E9D
:10119000076EE00EE82EFED7072EFCD7082EFAD7F2
:1011A000FF0012000150D96EDA6A0250DE18D8A48E
:1011B000DCEF08F0DEEF08F0E1EF08F00150EEEFB1
:1011C00008F0012A0104D96EDA6ADF50D8A4EBEFE7
:1011D00008F0EDEF08F0D2EF08F0000E1200026EFA
:1011E00001B0F5EF08F0F8EF08F08282F9EF08F0AF
:1011F000829202C083FF8284829495688280829268
:101200008284829483BE07EF09F009EF09F000EFB2
:1012100009F08290956A1200956A9450F80B946ECA
:101220008290000E016E380EEFEC08F0000E016E99
:101230000C0EEFEC08F0000E016E010EEFEC08F062
:10124000000E016E020EEFEC08F0120008BE2BEF4C
:1012500009F02DEF09F033EF09F007C007F008C0DF
:1012600008F03FEF09F007C009F008C00AF0091EB6
:101270000A1E094A0A2A09C007F00AC008F012002B
:10128000390E1C6E1E6A140E1D6E7E0E1F6E216AB4
:10129000010E206E236A000E226E256A000E246E57
:1012A00016EC06F0390E026E036A35EC08F01200F7
:1012B000026E02C0A9FF01C0A8FFA69EA684A69C3C
:1012C000F29E550EA76EAA0EA76EA682F28EA6B249
:1012D0006CEF09F06EEF09F067EF09F0A6941200C9
:1012E000350E066E9DEC09F0AA0E016E040E58EC48
:1012F00009F00D0E086EAF0E076EB60EE82EFED783
:10130000072EFCD7082EFAD700D0FF001200026A81
:1013100090EF09F00150D96EDA6ADF50021A012A03
:101320000150D96EDA6ADF50D8A499EF09F09BEF2B
:1013300009F08AEF09F002501200240E036E0350E8
:10134000D8A4060E046E800E056ECCEC07F006C025
:1013500003F00350D8A4060E046EC00E056ECCEC4C
:1013600007F01200ABA2B7EF09F0B9EF09F0BBEF3D
:1013700009F0AB98AB889EAAC0EF09F0C2EF09F064
:10138000BBEF09F0AE50120000EE60F0400EEE6AC6
:10139000E806FDE100EE4EF00A0EEE6AE806FDE119
:1013A000000EF86E0001D5EF09F011EC0AF08AEC9E
:1013B00008F0AEEC08F0FAEC09F00BEC0AF0A3EC44
:1013C00005F0DFEF09F0FEEF3FF0016E9EA8EBEFB6
:1013D00009F0EDEF09F0E6EF09F001C0ADFF1200F2
:1013E000949C948E810EAF6EAC84AC98AB8EAC8A1C
:1013F000AB881200960E026E0250D8A4060E036E41
:1014000035EC08F01200016E01C0A9FFA69EA69C53
:10141000A680A8501200000E016E040E58EC09F0D0
:101420001200F0EC09F00CEC09F01200000E9EBA6C
:06143000010E1200120083
:047FFC00C4EF09F0D5
:020000040030CA
:08000000FF021F1EFF8081FFBB
:00000001FF
